:0200000480007A
:100000001711000013010110EF0080089308000091
:10001000730000006F0000003305B500678000002A
:100020006350A0021307150093071000130500008A
:100030003305F50093871700E39CE7FE6780000017
:100040001305000067800000130101FF2326110043
:1000500023248100130405009307100063D2A70234
:10006000232291001305F5FFEFF01FFE9304050016
:100070001305E4FFEFF05FFD3385A4008324410006
:100080008320C10003248100130101016780000067
:10009000130101FF23261100232481002322910054
:1000A0002320210113055000EFF09FF713040500F2
:1000B0009304A50213057000EFF01FF91309050062
:1000C00013054000EFF05FF89307A0022320F01023
:1000D0002322801023249010232620112328A010EF
:1000E0008320C100032481008324410003290100EF
:0800F00013010101678000000B
:040000058000000077
:00000001FF
